{
  "_format": "hh-sol-artifact-1",
  "contractName": "Web3RSVP",
  "sourceName": "contracts/Web3RSVP.sol",
  "abi": [
    {
      "anonymous": false,
      "inputs": [
        {
          "indexed": false,
          "internalType": "bytes32",
          "name": "eventId",
          "type": "bytes32"
        },
        {
          "indexed": false,
          "internalType": "address",
          "name": "attendeeAddress",
          "type": "address"
        }
      ],
      "name": "ConfirmedAttendee",
      "type": "event"
    },
    {
      "anonymous": false,
      "inputs": [
        {
          "indexed": false,
          "internalType": "bytes32",
          "name": "eventID",
          "type": "bytes32"
        }
      ],
      "name": "DepositsPaidOut",
      "type": "event"
    },
    {
      "anonymous": false,
      "inputs": [
        {
          "indexed": false,
          "internalType": "bytes32",
          "name": "eventId",
          "type": "bytes32"
        },
        {
          "indexed": false,
          "internalType": "address",
          "name": "creatorAddress",
          "type": "address"
        },
        {
          "indexed": false,
          "internalType": "uint256",
          "name": "eventTimestamp",
          "type": "uint256"
        },
        {
          "indexed": false,
          "internalType": "uint256",
          "name": "maxCapacity",
          "type": "uint256"
        },
        {
          "indexed": false,
          "internalType": "uint256",
          "name": "deposit",
          "type": "uint256"
        },
        {
          "indexed": false,
          "internalType": "string",
          "name": "eventDataCID",
          "type": "string"
        }
      ],
      "name": "NewEventCreated",
      "type": "event"
    },
    {
      "anonymous": false,
      "inputs": [
        {
          "indexed": false,
          "internalType": "bytes32",
          "name": "eventId",
          "type": "bytes32"
        },
        {
          "indexed": false,
          "internalType": "address",
          "name": "attendeeAddress",
          "type": "address"
        }
      ],
      "name": "NewRSVP",
      "type": "event"
    },
    {
      "inputs": [
        {
          "internalType": "bytes32",
          "name": "eventId",
          "type": "bytes32"
        }
      ],
      "name": "confirmAllAttendees",
      "outputs": [],
      "stateMutability": "nonpayable",
      "type": "function"
    },
    {
      "inputs": [
        {
          "internalType": "bytes32",
          "name": "eventId",
          "type": "bytes32"
        },
        {
          "internalType": "address",
          "name": "attendee",
          "type": "address"
        }
      ],
      "name": "confirmedAttendee",
      "outputs": [],
      "stateMutability": "nonpayable",
      "type": "function"
    },
    {
      "inputs": [
        {
          "internalType": "uint256",
          "name": "eventTimestamp",
          "type": "uint256"
        },
        {
          "internalType": "uint256",
          "name": "deposit",
          "type": "uint256"
        },
        {
          "internalType": "uint256",
          "name": "maxCapacity",
          "type": "uint256"
        },
        {
          "internalType": "string",
          "name": "eventDataCID",
          "type": "string"
        }
      ],
      "name": "createNewEvent",
      "outputs": [],
      "stateMutability": "nonpayable",
      "type": "function"
    },
    {
      "inputs": [
        {
          "internalType": "bytes32",
          "name": "eventId",
          "type": "bytes32"
        }
      ],
      "name": "createNewRSVP",
      "outputs": [],
      "stateMutability": "payable",
      "type": "function"
    },
    {
      "inputs": [
        {
          "internalType": "bytes32",
          "name": "",
          "type": "bytes32"
        }
      ],
      "name": "idToEvent",
      "outputs": [
        {
          "internalType": "bytes32",
          "name": "eventId",
          "type": "bytes32"
        },
        {
          "internalType": "string",
          "name": "eventDataCID",
          "type": "string"
        },
        {
          "internalType": "address",
          "name": "eventOwner",
          "type": "address"
        },
        {
          "internalType": "uint256",
          "name": "eventTimestamp",
          "type": "uint256"
        },
        {
          "internalType": "uint256",
          "name": "deposit",
          "type": "uint256"
        },
        {
          "internalType": "uint256",
          "name": "maxCapacity",
          "type": "uint256"
        },
        {
          "internalType": "bool",
          "name": "paidOut",
          "type": "bool"
        }
      ],
      "stateMutability": "view",
      "type": "function"
    },
    {
      "inputs": [
        {
          "internalType": "bytes32",
          "name": "eventId",
          "type": "bytes32"
        }
      ],
      "name": "withdrawUnclaimedDeposits",
      "outputs": [],
      "stateMutability": "nonpayable",
      "type": "function"
    }
  ],
  "bytecode": "0x608060405234801561001057600080fd5b50612209806100206000396000f3fe6080604052600436106100545760003560e01c806292098c1461005957806317f0165a14610082578063797475711461009e578063909ef021146100c757806398ea41b81461010a578063acdbe01214610133575b600080fd5b34801561006557600080fd5b50610080600480360381019061007b9190611591565b61015c565b005b61009c6004803603810190610097919061164f565b6103d0565b005b3480156100aa57600080fd5b506100c560048036038101906100c0919061164f565b61063d565b005b3480156100d357600080fd5b506100ee60048036038101906100e9919061164f565b610abe565b604051610101979695949392919061178f565b60405180910390f35b34801561011657600080fd5b50610131600480360381019061012c9190611831565b610bb5565b005b34801561013f57600080fd5b5061015a6004803603810190610155919061164f565b61108e565b005b600033308787876040516020016101779594939291906118da565b604051602081830303815290604052805190602001209050600080600083815260200190815260200160002060030154146101e7576040517f08c379a00000000000000000000000000000000000000000000000000000000081526004016101de90611985565b60405180910390fd5b60608060405180610120016040528084815260200186868080601f016020809104026020016040519081016040528093929190818152602001838380828437600081840152601f19601f8201169050808301925050505050505081526020013373ffffffffffffffffffffffffffffffffffffffff168152602001898152602001888152602001878152602001838152602001828152602001600015158152506000808581526020019081526020016000206000820151816000015560208201518160010190805190602001906102bf9291906113bf565b5060408201518160020160006101000a81548173ffffffffffffffffffffffffffffffffffffffff021916908373ffffffffffffffffffffffffffffffffffffffff160217905550606082015181600301556080820151816004015560a0820151816005015560c0820151816006019080519060200190610341929190611445565b5060e082015181600701908051906020019061035e929190611445565b506101008201518160080160006101000a81548160ff0219169083151502179055509050507f2553138c3f9c9008f266dbdbe9fc64f5b71e098d06ef714a190a65a8b9fc6bf383338a898b8a8a6040516103be97969594939291906119e1565b60405180910390a15050505050505050565b600080600083815260200190815260200160002090508060040154341461042c576040517f08c379a000000000000000000000000000000000000000000000000000000000815260040161042390611a97565b60405180910390fd5b8060030154421115610473576040517f08c379a000000000000000000000000000000000000000000000000000000000815260040161046a90611b03565b60405180910390fd5b80600501548160060180549050106104c0576040517f08c379a00000000000000000000000000000000000000000000000000000000081526004016104b790611b6f565b60405180910390fd5b60005b81600601805490508160ff16101561059a573373ffffffffffffffffffffffffffffffffffffffff16826006018260ff168154811061050557610504611b8f565b5b9060005260206000200160009054906101000a900473ffffffffffffffffffffffffffffffffffffffff1673ffffffffffffffffffffffffffffffffffffffff161415610587576040517f08c379a000000000000000000000000000000000000000000000000000000000815260040161057e90611c0a565b60405180910390fd5b808061059290611c66565b9150506104c3565b5080600601339080600181540180825580915050600190039060005260206000200160009091909190916101000a81548173ffffffffffffffffffffffffffffffffffffffff021916908373ffffffffffffffffffffffffffffffffffffffff1602179055507fb79f4240bbdd272d98e02a5db7f0cf156e5fc000961c517670a26eeeec63ed908233604051610631929190611c90565b60405180910390a15050565b6000806000838152602001908152602001600020604051806101200160405290816000820154815260200160018201805461067790611ce8565b80601f01602080910402602001604051908101604052809291908181526020018280546106a390611ce8565b80156106f05780601f106106c5576101008083540402835291602001916106f0565b820191906000526020600020905b8154815290600101906020018083116106d357829003601f168201915b505050505081526020016002820160009054906101000a900473ffffffffffffffffffffffffffffffffffffffff1673ffffffffffffffffffffffffffffffffffffffff1673ffffffffffffffffffffffffffffffffffffffff168152602001600382015481526020016004820154815260200160058201548152602001600682018054806020026020016040519081016040528092919081815260200182805480156107f257602002820191906000526020600020905b8160009054906101000a900473ffffffffffffffffffffffffffffffffffffffff1673ffffffffffffffffffffffffffffffffffffffff16815260200190600101908083116107a8575b505050505081526020016007820180548060200260200160405190810160405280929190818152602001828054801561088057602002820191906000526020600020905b8160009054906101000a900473ffffffffffffffffffffffffffffffffffffffff1673ffffffffffffffffffffffffffffffffffffffff1681526020019060010190808311610836575b505050505081526020016008820160009054906101000a900460ff1615151515815250509050806101000151156108ec576040517f08c379a00000000000000000000000000000000000000000000000000000000081526004016108e390611d66565b60405180910390fd5b62093a8081606001516108ff9190611d86565b421015610941576040517f08c379a000000000000000000000000000000000000000000000000000000000815260040161093890611e28565b60405180910390fd5b806040015173ffffffffffffffffffffffffffffffffffffffff163373ffffffffffffffffffffffffffffffffffffffff16146109b3576040517f08c379a00000000000000000000000000000000000000000000000000000000081526004016109aa90611e94565b60405180910390fd5b60008160e00151518260c00151516109cb9190611eb4565b905060008260800151826109df9190611ee8565b905060018361010001901515908115158152505060003373ffffffffffffffffffffffffffffffffffffffff1682604051610a1990611f73565b60006040518083038185875af1925050503d8060008114610a56576040519150601f19603f3d011682016040523d82523d6000602084013e610a5b565b606091505b5050905080610a77576000846101000190151590811515815250505b80610ab7576040517f08c379a0000000000000000000000000000000000000000000000000000000008152600401610aae90611fd4565b60405180910390fd5b5050505050565b6000602052806000526040600020600091509050806000015490806001018054610ae790611ce8565b80601f0160208091040260200160405190810160405280929190818152602001828054610b1390611ce8565b8015610b605780601f10610b3557610100808354040283529160200191610b60565b820191906000526020600020905b815481529060010190602001808311610b4357829003601f168201915b5050505050908060020160009054906101000a900473ffffffffffffffffffffffffffffffffffffffff16908060030154908060040154908060050154908060080160009054906101000a900460ff16905087565b600080600084815260200190815260200160002090508060020160009054906101000a900473ffffffffffffffffffffffffffffffffffffffff1673ffffffffffffffffffffffffffffffffffffffff163373ffffffffffffffffffffffffffffffffffffffff1614610c5d576040517f08c379a0000000000000000000000000000000000000000000000000000000008152600401610c5490612040565b60405180910390fd5b600080600090505b82600601805490508160ff161015610d48578373ffffffffffffffffffffffffffffffffffffffff16836006018260ff1681548110610ca757610ca6611b8f565b5b9060005260206000200160009054906101000a900473ffffffffffffffffffffffffffffffffffffffff1673ffffffffffffffffffffffffffffffffffffffff161415610d3557826006018160ff1681548110610d0757610d06611b8f565b5b9060005260206000200160009054906101000a900473ffffffffffffffffffffffffffffffffffffffff1691505b8080610d4090611c66565b915050610c65565b508273ffffffffffffffffffffffffffffffffffffffff168173ffffffffffffffffffffffffffffffffffffffff1614610db7576040517f08c379a0000000000000000000000000000000000000000000000000000000008152600401610dae906120ac565b60405180910390fd5b60005b82600701805490508160ff161015610e91578373ffffffffffffffffffffffffffffffffffffffff16836007018260ff1681548110610dfc57610dfb611b8f565b5b9060005260206000200160009054906101000a900473ffffffffffffffffffffffffffffffffffffffff1673ffffffffffffffffffffffffffffffffffffffff161415610e7e576040517f08c379a0000000000000000000000000000000000000000000000000000000008152600401610e7590612118565b60405180910390fd5b8080610e8990611c66565b915050610dba565b50600015158260080160009054906101000a900460ff16151514610eea576040517f08c379a0000000000000000000000000000000000000000000000000000000008152600401610ee190612184565b60405180910390fd5b81600701839080600181540180825580915050600190039060005260206000200160009091909190916101000a81548173ffffffffffffffffffffffffffffffffffffffff021916908373ffffffffffffffffffffffffffffffffffffffff16021790555060008373ffffffffffffffffffffffffffffffffffffffff168360040154604051610f7990611f73565b60006040518083038185875af1925050503d8060008114610fb6576040519150601f19603f3d011682016040523d82523d6000602084013e610fbb565b606091505b505090508061100e5782600701805480610fd857610fd76121a4565b5b6001900381819060005260206000200160006101000a81549073ffffffffffffffffffffffffffffffffffffffff021916905590555b8061104e576040517f08c379a000000000000000000000000000000000000000000000000000000000815260040161104590611fd4565b60405180910390fd5b7ff8d1583a733d83bdd3ef5464129d0a95a36d62b382d31c6d0467a61f4264381b858560405161107f929190611c90565b60405180910390a15050505050565b600080600083815260200190815260200160002060405180610120016040529081600082015481526020016001820180546110c890611ce8565b80601f01602080910402602001604051908101604052809291908181526020018280546110f490611ce8565b80156111415780601f1061111657610100808354040283529160200191611141565b820191906000526020600020905b81548152906001019060200180831161112457829003601f168201915b505050505081526020016002820160009054906101000a900473ffffffffffffffffffffffffffffffffffffffff1673ffffffffffffffffffffffffffffffffffffffff1673ffffffffffffffffffffffffffffffffffffffff1681526020016003820154815260200160048201548152602001600582015481526020016006820180548060200260200160405190810160405280929190818152602001828054801561124357602002820191906000526020600020905b8160009054906101000a900473ffffffffffffffffffffffffffffffffffffffff1673ffffffffffffffffffffffffffffffffffffffff16815260200190600101908083116111f9575b50505050508152602001600782018054806020026020016040519081016040528092919081815260200182805480156112d157602002820191906000526020600020905b8160009054906101000a900473ffffffffffffffffffffffffffffffffffffffff1673ffffffffffffffffffffffffffffffffffffffff1681526020019060010190808311611287575b505050505081526020016008820160009054906101000a900460ff1615151515815250509050806040015173ffffffffffffffffffffffffffffffffffffffff163373ffffffffffffffffffffffffffffffffffffffff1614611369576040517f08c379a000000000000000000000000000000000000000000000000000000000815260040161136090612040565b60405180910390fd5b60005b8160c00151518160ff1610156113ba576113a7838360c001518360ff168151811061139a57611399611b8f565b5b6020026020010151610bb5565b80806113b290611c66565b91505061136c565b505050565b8280546113cb90611ce8565b90600052602060002090601f0160209004810192826113ed5760008555611434565b82601f1061140657805160ff1916838001178555611434565b82800160010185558215611434579182015b82811115611433578251825591602001919060010190611418565b5b50905061144191906114cf565b5090565b8280548282559060005260206000209081019282156114be579160200282015b828111156114bd5782518260006101000a81548173ffffffffffffffffffffffffffffffffffffffff021916908373ffffffffffffffffffffffffffffffffffffffff16021790555091602001919060010190611465565b5b5090506114cb91906114cf565b5090565b5b808211156114e85760008160009055506001016114d0565b5090565b600080fd5b600080fd5b6000819050919050565b611509816114f6565b811461151457600080fd5b50565b60008135905061152681611500565b92915050565b600080fd5b600080fd5b600080fd5b60008083601f8401126115515761155061152c565b5b8235905067ffffffffffffffff81111561156e5761156d611531565b5b60208301915083600182028301111561158a57611589611536565b5b9250929050565b6000806000806000608086880312156115ad576115ac6114ec565b5b60006115bb88828901611517565b95505060206115cc88828901611517565b94505060406115dd88828901611517565b935050606086013567ffffffffffffffff8111156115fe576115fd6114f1565b5b61160a8882890161153b565b92509250509295509295909350565b6000819050919050565b61162c81611619565b811461163757600080fd5b50565b60008135905061164981611623565b92915050565b600060208284031215611665576116646114ec565b5b60006116738482850161163a565b91505092915050565b61168581611619565b82525050565b600081519050919050565b600082825260208201905092915050565b60005b838110156116c55780820151818401526020810190506116aa565b838111156116d4576000848401525b50505050565b6000601f19601f8301169050919050565b60006116f68261168b565b6117008185611696565b93506117108185602086016116a7565b611719816116da565b840191505092915050565b600073ffffffffffffffffffffffffffffffffffffffff82169050919050565b600061174f82611724565b9050919050565b61175f81611744565b82525050565b61176e816114f6565b82525050565b60008115159050919050565b61178981611774565b82525050565b600060e0820190506117a4600083018a61167c565b81810360208301526117b681896116eb565b90506117c56040830188611756565b6117d26060830187611765565b6117df6080830186611765565b6117ec60a0830185611765565b6117f960c0830184611780565b98975050505050505050565b61180e81611744565b811461181957600080fd5b50565b60008135905061182b81611805565b92915050565b60008060408385031215611848576118476114ec565b5b60006118568582860161163a565b92505060206118678582860161181c565b9150509250929050565b60008160601b9050919050565b600061188982611871565b9050919050565b600061189b8261187e565b9050919050565b6118b36118ae82611744565b611890565b82525050565b6000819050919050565b6118d46118cf826114f6565b6118b9565b82525050565b60006118e682886118a2565b6014820191506118f682876118a2565b60148201915061190682866118c3565b60208201915061191682856118c3565b60208201915061192682846118c3565b6020820191508190509695505050505050565b7f414c524541445920524547495354455245440000000000000000000000000000600082015250565b600061196f601283611696565b915061197a82611939565b602082019050919050565b6000602082019050818103600083015261199e81611962565b9050919050565b82818337600083830152505050565b60006119c08385611696565b93506119cd8385846119a5565b6119d6836116da565b840190509392505050565b600060c0820190506119f6600083018a61167c565b611a036020830189611756565b611a106040830188611765565b611a1d6060830187611765565b611a2a6080830186611765565b81810360a0830152611a3d8184866119b4565b905098975050505050505050565b7f4e4f5420454e4f55474800000000000000000000000000000000000000000000600082015250565b6000611a81600a83611696565b9150611a8c82611a4b565b602082019050919050565b60006020820190508181036000830152611ab081611a74565b9050919050565b7f414c52454144592048415050454e454400000000000000000000000000000000600082015250565b6000611aed601083611696565b9150611af882611ab7565b602082019050919050565b60006020820190508181036000830152611b1c81611ae0565b9050919050565b7f54686973206576656e7420686173207265616368656420636170616369747900600082015250565b6000611b59601f83611696565b9150611b6482611b23565b602082019050919050565b60006020820190508181036000830152611b8881611b4c565b9050919050565b7f4e487b7100000000000000000000000000000000000000000000000000000000600052603260045260246000fd5b7f414c524541445920434f4e4649524d4544000000000000000000000000000000600082015250565b6000611bf4601183611696565b9150611bff82611bbe565b602082019050919050565b60006020820190508181036000830152611c2381611be7565b9050919050565b7f4e487b7100000000000000000000000000000000000000000000000000000000600052601160045260246000fd5b600060ff82169050919050565b6000611c7182611c59565b915060ff821415611c8557611c84611c2a565b5b600182019050919050565b6000604082019050611ca5600083018561167c565b611cb26020830184611756565b9392505050565b7f4e487b7100000000000000000000000000000000000000000000000000000000600052602260045260246000fd5b60006002820490506001821680611d0057607f821691505b60208210811415611d1457611d13611cb9565b5b50919050565b7f414c524541445920504149440000000000000000000000000000000000000000600082015250565b6000611d50600c83611696565b9150611d5b82611d1a565b602082019050919050565b60006020820190508181036000830152611d7f81611d43565b9050919050565b6000611d91826114f6565b9150611d9c836114f6565b9250827fffffffffffffffffffffffffffffffffffffffffffffffffffffffffffffffff03821115611dd157611dd0611c2a565b5b828201905092915050565b7f544f4f204541524c590000000000000000000000000000000000000000000000600082015250565b6000611e12600983611696565b9150611e1d82611ddc565b602082019050919050565b60006020820190508181036000830152611e4181611e05565b9050919050565b7f4d555354204245204556454e54204f574e455200000000000000000000000000600082015250565b6000611e7e601383611696565b9150611e8982611e48565b602082019050919050565b60006020820190508181036000830152611ead81611e71565b9050919050565b6000611ebf826114f6565b9150611eca836114f6565b925082821015611edd57611edc611c2a565b5b828203905092915050565b6000611ef3826114f6565b9150611efe836114f6565b9250817fffffffffffffffffffffffffffffffffffffffffffffffffffffffffffffffff0483118215151615611f3757611f36611c2a565b5b828202905092915050565b600081905092915050565b50565b6000611f5d600083611f42565b9150611f6882611f4d565b600082019050919050565b6000611f7e82611f50565b9150819050919050565b7f4661696c656420746f2073656e64204574686572000000000000000000000000600082015250565b6000611fbe601483611696565b9150611fc982611f88565b602082019050919050565b60006020820190508181036000830152611fed81611fb1565b9050919050565b7f4e4f5420415554484f52495a4544000000000000000000000000000000000000600082015250565b600061202a600e83611696565b915061203582611ff4565b602082019050919050565b600060208201905081810360008301526120598161201d565b9050919050565b7f4e4f205253565020544f20434f4e4649524d0000000000000000000000000000600082015250565b6000612096601283611696565b91506120a182612060565b602082019050919050565b600060208201905081810360008301526120c581612089565b9050919050565b7f414c524541445920434c41494d45440000000000000000000000000000000000600082015250565b6000612102600f83611696565b915061210d826120cc565b602082019050919050565b60006020820190508181036000830152612131816120f5565b9050919050565b7f414c52454144592050414944204f555400000000000000000000000000000000600082015250565b600061216e601083611696565b915061217982612138565b602082019050919050565b6000602082019050818103600083015261219d81612161565b9050919050565b7f4e487b7100000000000000000000000000000000000000000000000000000000600052603160045260246000fdfea2646970667358221220caa8d123e68f5a47cc54b604df0177a587654b18b55bdeae9746115a2fb7202564736f6c63430008090033",
  "linkReferences": {},
  "deployedLinkReferences": {}
}